S02200005461636F6D6574726F436F6D5669736F724E6F6B6961353131302E7372656369
S11300000C9454010C944B020C9471010C947101E6
S11300100C9471010C94D5020C9471010C94260279
S11300200C9471010C9471010C94CD010C94710128
S11300300C9471010C9471010C9471010C94710174
S11300400C9471010C9471010C947E010C94710157
S11300500C94BE010C94BF020C9471010C947101B8
S11300600C9471010C94710105000000000005005E
S1130070005F000005000700070005147F147F14CB
S113008005242A7F2A12052313086462053649567B
S1130090205005080703000005001C22410005004C
S11300A041221C000514083E08140508083E0808EF
S11300B00500B07000000508080808080500606025
S11300C00000052010080402053E5149453E050084
S11300D0427F4000057249494946052141494D3353
S11300E0051814127F10052745454539053C4A4932
S11300F04931054121110907053649494936054663
S11301004949291E05000014000005004034000080
S11301100508142241000514141414140541221472
S11301200800050201590906053E415D594E057C4A
S11301301211127C057F49494936053E414141224D
S1130140057F4141413E057F49494949057F0909E8
S11301500909053E41415173057F0808087F0500E0
S1130160417F4100052040413F01057F08142241A1
S1130170057F40404040057F020C027F057F040854
S1130180107F053E4141413E057F09090906053EB0
S11301904151215E057F09192946052649494932FD
S11301A00501017F0101053F4040403F051F2040FC
S11301B0201F053F4038403F0563140814630503BE
S11301C00478040305615149454305007F4141001A
S11301D0050204081020050041417F0005040201C6
S11301E0020405404040404005070B000000052084
S11301F054547840057F28444438053844444428FE
S113020005384444287F0538545454180500087EA2
S113021009020518A4A49C78057F08040478050045
S1130220447D4000052040403D00057F10284400E7
S11302300500417F4000057C04780478057C0804AF
S1130240047805384444443805FC18242418051857
S1130250242418FC057C0804040805485454542438
S11302600504043F4424053C4040207C051C2040F8
S1130270201C053C4030403C054428102844054CD3
S11302809090907C054464544C4405000836410029
S1130290050000770000050041360800050402044B
S11302A0080405007F417F0011241FBECFEFD8E072
S11302B0DEBFCDBF11E0A0E0B1E0EEE1F3E202C0A9
S11302C005900D92A833B107D9F725E0A8E3B1E072
S11302D001C01D92A837B207E1F70E94AD060C9445
S11302E08D110C9400009093C5008093C40088ED98
S11302F08093C1008EE08093C20008951F920F92F4
S11303000FB60F9211242F933F934F935F936F93E4
S11303107F938F939F93AF93BF93EF93FF938091BA
S1130320C600809301018C3629F460E085E090E0FA
S11303300E94381180910101863731F48FEF809348
S11303404E0188B1886088B980910101863629F40C
S113035010924E0188B1877F88B9FF91EF91BF91C8
S1130360AF919F918F917F916F915F914F913F9149
S11303702F910F900FBE0F901F9018951F920F9200
S11303800FB60F9211248F9381E080934F018F91C8
S11303900F900FBE0F901F9018951F920F920FB6DB
S11303A00F9211244F935F936F937F938F939F9337
S11303B0AF93BF93EF93FF938091810086FF0FC0AB
S11303C08091860090918700A0E0B0E08093560170
S11303D090935701A0935801B093590122C0809182
S11303E0860090918700A0E0B0E0409156015091C2
S11303F057016091580170915901841B950BA60B0C
S1130400B70B880F991FAA1FBB1F880F991FAA1F1C
S1130410BB1F8093520190935301A0935401B09356
S11304205501E1E8F0E0908180E489278083FF9121
S1130430EF91BF91AF919F918F917F916F915F9158
S11304404F910F900FBE0F901F9018951F920F920F
S11304500FB60F9211248F939F93AF93BF93809104
S11304606B0190916C01A0916D01B0916E010196A8
S1130470A11DB11D80936B0190936C01A0936D013C
S1130480B0936E01BF91AF919F918F910F900FBE6A
S11304900F901F9018951F920F920FB60F92112470
S11304A08F929F92AF92BF92CF92DF92EF92FF9280
S11304B02F933F934F935F936F937F938F939F9368
S11304C0AF93BF93EF93FF93C0906B01D0906C01F7
S11304D0E0906D01F0906E0180914A0190914B0182
S11304E09601281B390B30935D0120935C016091C8
S11304F05E0170E080E090E00E94BF0C2BED3FE0D5
S113050049E450E40E94740D4B015C016091630165
S11305107091640180916501909166010E94BD0C07
S1130520A50194010E94A90B0E948E0C60936301A3
S1130530709364018093650190936601C0924A01AF
S1130540D0924B01E0924C01F0924D01FF91EF915A
S1130550BF91AF919F918F917F916F915F914F91D7
S11305603F912F91FF90EF90DF90CF90BF90AF908D
S11305709F908F900F900FBE0F901F9018951F9211
S11305800F920FB60F9211248F939F93809178004E
S11305909091790090935B0180935A019F918F9180
S11305A00F900FBE0F901F9018951F920F920FB6C9
S11305B00F9211242F933F934F935F936F937F93E5
S11305C08F939F93AF93BF93EF93FF934C990BC07B
S11305D060915E01683C38F46F5F60935E0180E077
S11305E090E00E941A114D990BC060915E01623037
S11305F038F0615060935E0180E090E00E941A112F
S11306004B9904C084E48093060103C082E580937F
S113061006014F9903C080E580930601FF91EF9195
S1130620BF91AF919F918F917F916F915F914F9106
S11306303F912F910F900FBE0F901F901895AC0112
S113064080914901813059F120F0823009F456C07B
S113065085C085B1817C85B985B1806C85B99A01E5
S1130660ADECBCEC0E94360E9695879596958795D1
S1130670969587959C01220F331F880F991F880F29
S1130680991F880F991F820F931F9A01281B390BFA
S1130690C901880F8E7195B1892B85B95FC085B169
S11306A0817A85B985B1806A85B9E5B19A01ADECE5
S11306B0BCEC0E94360EAC0156954795569547956D
S11306C0569547959A010E94360E9695879596956C
S11306D08795969587959C01220F331F880F991F44
S11306E0880F991F880F991F820F931F9A01281B47
S11306F0390BC901880F8E2B85B930C085B181763D
S113070085B985B1806685B9E5B19A013695279595
S113071036952795ABE7B4E10E94360EAC015695A9
S113072047959A01ADECBCEC0E94360E96958795E0
S113073096958795969587959C01220F331F880F70
S1130740991F880F991F880F991F820F931F9A0171
S1130750281B390BC901880F8E2B85B9809149015B
S1130760823019F41092490108958F5F80934901F2
S113077008958F929F92AF92BF92CF92DF92EF92A1
S1130780FF9260915E0170E080E090E00E94BF0CF7
S11307902BED3FE049E450E40E94740D20E030E08A
S11307A044EB53E40E94740D4B015C01C0905C0166
S11307B0D0905D01E12CF12CC701B6010E94BD0C63
S11307C09B01AC01C501B4010E94150C6093670143
S11307D0709368018093690190936A0160EC77E2F9
S11307E089E090E0A70196010E94170ECA01B901A1
S11307F00E94BF0C60935F0170936001809361015C
S11308009093620180915201909153016AE370E0E8
S11308100E94E10D70935101609350016091630156
S11308207091640180916501909166010E94BD0CF4
S11308306B017C01209145013091460140914701B3
S1130840509148010E94A80B20E030E543EC57E4A6
S11308500E946F0D8823D4F0F999FECFB701A60149
S113086081E090E00E942C11609163017091640119
S113087080916501909166010E94BD0C60934501D1
S1130880709346018093470190934801FF90EF9045
S1130890DF90CF90BF90AF909F908F9008958091FC
S11308A001018436B9F4909100018DEC989F912D4B
S11308B01124969596959695989F812D1124869549
S11308C086958695880F282F220F220F820F981B5A
S11308D09093C60080914F01882399F020910001E4
S11308E08DEC289F812D1124869586958695880FF9
S11308F0982F990F990F890F281B2093C6001092E7
S11309004F010895CF92DF92EF92FF92C090410180
S1130910D0904201E0904301F09044019B01AC016E
S11309202C193D094E095F0969017A013CE3C3169C
S1130930D104E104F104B8F06B017C01609167011A
S1130940709168018091690190916A010E94870CFD
S1130950CB010E941F03C0924101D0924201E09258
S11309604301F0924401FF90EF90DF90CF900895FF
S11309700F931F93CF93DF93CDB7DEB76E970FB668
S1130980F894DEBF0FBECDBF188E609163017091E5
S11309906401809165019091660120EA36E841E0A6
S11309A050E00E94F50D3F932F9307E011E01F9351
S11309B00F93CE0101969F938F930E94590E6091DD
S11309C05F017091600180916101909162010E94C8
S11309D0870C7F936F931F930F93CE0105969F937C
S11309E08F930E94590E80915E011F928F931F93E3
S11309F00F93CE010B969F938F930E94590E809173
S1130A005B018F9380915A018F931F930F93CE01B3
S1130A100F969F938F930E94590E809151018F934B
S1130A20809150018F931F930F93CE0143969F9310
S1130A308F930E94590E809103018F93809102013C
S1130A408F931F930F93CE0147969F938F930E948A
S1130A50590E0FB6F894DEBF0FBECDBF80910501CD
S1130A608F93809104018F931F930F93CE014B9624
S1130A709F938F930E94590E0E94160A61E081E0B1
S1130A800E94AC078AE091E00E945A0B0FEF2AE023
S1130A9042E36AE081E00E94150980914E010F90C3
S1130AA00F900F900F900F900F908F3F69F465E0B7
S1130AB080E50E94AC0786E50E94490A2FE04AE5DA
S1130AC061E089E40E94A8096FE084E60E94AC0713
S1130AD0CE014B960E945A0B83E191E00E945A0B7F
S1130AE063E084E60E94AC07CE0147960E945A0B4D
S1130AF086E191E00E945A0B0FEF29E14EE761E095
S1130B0082E60E94A80964E281E00E94AC0789E1C0
S1130B1091E00E945A0BCE010B960E945A0B83E27D
S1130B2091E00E945A0B6AE181E00E94AC0787E2DF
S1130B3091E00E945A0BCE0143960E945A0B83E225
S1130B4091E00E945A0B60E181E00E94AC07CE0163
S1130B5005960E945A0B8FE291E00E945A0B64E3BF
S1130B6084E10E94AC07CE0101960E945A0B84E3F3
S1130B7091E00E945A0B2EE346E460E38AE00E946F
S1130B80A80964E383E70E94AC07809106010E94F0
S1130B90490A2EE34DE760E38CE60E94A8090E940F
S1130BA07E076E960FB6F894DEBF0FBECDBFDF9101
S1130BB0CF911F910F910895CF92DF92EF92FF9200
S1130BC06B017C018091390190913A01A0913B0124
S1130BD0B0913C01A7019601281B390B4A0B5B0B12
S1130BE0DA01C90188389341A105B10510F00E94CA
S1130BF0B804C0923901D0923A01E0923B01F092DC
S1130C003C01FF90EF90DF90CF90089580913801E0
S1130C10813061F120F0823009F43EC063C08091DC
S1130C205001909151018D32914050F080917800A3
S1130C3090917900969587959695879587BD12C072
S1130C4060916701709168018091690190916A01D6
S1130C5020E030E040EA51E40E946F0D181614F4CD
S1130C6089E187BD81E480937C003CC020917800B9
S1130C7030917900A4E6B0E00E94360E2FEF33E005
S1130C8040E050E00E94F50D3093030120930201EF
S1130C9082E480937C0026C0209178003091790012
S1130CA0AAE7B0E00E94360E6658734F8109910995
S1130CB024E630E040E050E00E94F50D3093050159
S1130CC0209304018091000190E08217930738F487
S1130CD020930001622F85E090E00E941A1180E4C5
S1130CE080937C0080913801823019F4109238018D
S1130CF008958F5F809338010895CF92DF92EF9229
S1130D00FF92C0903D01D0903E01E0903F01F090F1
S1130D1040019B01AC012C193D094E095F09690191
S1130D207A0138EEC31633E0D306E104F10480F00F
S1130D306B017C010E94B9030E9406060E944F04C5
S1130D40C0923D01D0923E01E0923F01F0924001F9
S1130D50FF90EF90DF90CF9008958EEF84B982E4F6
S1130D608AB980E38BB915B887B1886087B983E401
S1130D708093810090E290936F0082E08093B000B2
S1130D808093B10027EC2093B3008093700080938C
S1130D90690081E08DBB84E08093680088EB8093D8
S1130DA06D0080E480937C0087EE80937A0010923B
S1130DB07B0090937E0083E884BD83E085BD80E85A
S1130DC087BD7894F999FECF80E090E00E940C11E1
S1130DD080935E01F999FECF81E090E00E941411A6
S1130DE00E948E0C6093630170936401809365018B
S1130DF090936601F999FECF85E090E00E940C1172
S1130E00809301010E94B50720E048E065E088E690
S1130E1090E00E942A0A0E941A0A87E690E00E9443
S1130E20730160916B0170916C0180916D019091DF
S1130E306E010E94820460916B0170916C0180913B
S1130E406D0190916E010E947D0660916B0170911D
S1130E506C0180916D0190916E010E94DC05E1CFDF
S1130E60669566956695E82FF0E080E8689FE00D4A
S1130E70F11D1124E858FE4F408308956695669548
S1130E806695E82FF0E080E8689FE00DF11D1124DD
S1130E90E858FE4F808108950F931F93CF93DF93FB
S1130EA0C82F8B01D42F0E948A0B88E70E949C0BC9
S1130EB08C2F0E949C0BC0E007C0F801EC0FF11DC1
S1130EC080810E949C0BCF5FCD17B8F30E94940BD6
S1130ED0DF91CF911F910F910895CF93DF931F92CC
S1130EE0CDB7DEB7898341E0BE016F5F7F4F80E0FD
S1130EF00E944C070F90DF91CF910895CF9381E228
S1130F000E946D0780E00E946D078FE70E946D07C5
S1130F1082E20E946D0780E00E946D0787E00E94D4
S1130F206D07C0E00BC080E1C89FB0011124685870
S1130F307E4F40E180E40E944C07CF5FC03498F3B9
S1130F40CF910895882314F080936F01089580341D
S1130F5010F4809370010895CF93C62F0E94A207C6
S1130F608C2F0E94A707CF9108950E94710B8EEADF
S1130F700E946D0785ED0E946D0780EF0E946D074A
S1130F8088EA0E946D078FE30E946D0783ED0E943B
S1130F906D0780E00E946D078DE80E946D0784E173
S1130FA00E946D0780E40E946D0780E20E946D0735
S1130FB080E00E946D0781EA0E946D0788EC0E9420
S1130FC06D078AED0E946D0782E10E946D0781E83A
S1130FD00E946D078FEF0E946D0789ED0E946D07D7
S1130FE081EF0E946D078BED0E946D0780E20E94E5
S1130FF06D0784EA0E946D0786EA0E946D078EE2FF
S11310000E946D078FEA0E946D0760E080E00E94F5
S1131010AC07EFE6F1E086EA828317821682158236
S1131020118210820895FF920F931F93CF93DF9341
S1131030C62F142F0E94AC07EFE6F1E0F180D081B7
S11310406F2D8D2F0E943E071F3F79F4C77001E07A
S113105010E020E030E004C0000F111F221F331FF6
S1131060CA95D2F7482F402B0FC0C77001E010E09B
S113107020E030E004C0000F111F221F331FCA9567
S1131080D2F70095402F48236F2D8D2F0E943007F3
S1131090DF91CF911F910F91FF9008956F927F92EE
S11310A08F929F92AF92BF92CF92DF92EF92FF9274
S11310B00F931F93CF93DF9388230CF4A7C044238B
S11310C00CF4A4C0603408F0A1C0203408F09EC021
S11310D0261B99249394920E481BD1E0D40F962F8B
S11310E09770162F191BE92CF12C28E030E0291BEE
S11310F03109E216F3067CF428E030E02E193F09AA
S11311004FEF50E06A0102C0D594C7942A95E2F7E4
S11311102C2DB92C04C028E0B22EB91A2FEFA82E1A
S1131120C22ED12C02C0CC0CDD1C9A95E2F76C2C9B
S1131130612F0E94AC07812C19C0EFE6F1E07180A9
S1131140C081672D8C2F0E943E070F3F19F4462D56
S1131150482B03C04C2D4095482381E08C0F80938D
S11311606F01672D8C2F0E94300783948D1628F30E
S113117016C088E0B80E185F612F8A2D0E94AC0754
S1131180C0E00BC0EFE6F1E06181808191E0980F4F
S11311909083402F0E943007CF5FCD1798F38B2D9B
S11311A090E09C01285F3F4FE216F30614F7B91450
S11311B068F5E81AF90A8FEF90E002C0880F991FCA
S11311C0EA94E2F7E82EE09468E0610F8A2D0E9429
S11311D0AC0710E019C0EFE6F1E0F180C0816F2D9B
S11311E08C2F0E943E070F3F19F44E2D482B03C04D
S11311F04E2D4095482381E08C0F80936F016F2D15
S11312008C2F0E9430071F5F1D1728F3DF91CF91A9
S11312101F910F91FF90EF90DF90CF90BF90AF9010
S11312209F908F907F906F9008958F929F92AF922E
S1131230BF92CF92DF92EF92FF920F931F93CF93BF
S1131240DF93C82FD62F142F88230CF474C04423A3
S11312500CF471C0603408F06EC0203408F06BC028
S113126084130AC0261710F4D22F262F4C2F6D2F6B
S11312708C2F0E944E085FC062130EC0481748F4BA
S1131280C42F182F06C0402F6D2F8C2F0E941308D7
S1131290CF5F1C17C0F74FC0261728F4C62ED12CD9
S11312A0C21AD10804C0C22ED12CC61AD1081C17E8
S11312B028F4AC2EB12CA11AB10804C0A12EB12C73
S11312C0AC1AB108AC14BD0434F4812F122F282FAA
S11312D08C2FCD2FD82F1C1730F48D2FD22F282FE1
S11312E08C2FC12F182F912E9C1AD21718F4E22E8E
S11312F0ED1A02C0ED2EE21AF92CF694D21718F466
S11313008824839416C088248A9413C0AC14BD0422
S113131034F4402F6C2F8D2F0E94130805C0402FEA
S11313206D2F8C2F0E941308FE1812F4D80DF90C9F
S1131330CF5F1C1758F7DF91CF911F910F91FF904A
S1131340EF90DF90CF90BF90AF909F908F900895D3
S1131350DF92EF92FF920F931F93CF93DF93882333
S11313600CF445C044230CF442C0603408F03FC080
S11313702034E8F5D02F122FD42EF62EE82E48175D
S113138018F0042FC82F09C0082FC42F06C04D2FF2
S11313906F2D8C2F0E941308CF5F0C17C0F7DE143B
S11313A018F00D2DCE2D09C00E2DCD2D06C04D2FBC
S11313B0612F8C2F0E941308CF5F0C17C0F71F15E5
S11313C018F0212F6F2D02C02F2D612F0D2F4E2DC0
S11313D08E2D0E944E081F1518F0212F6F2D02C06C
S11313E02F2D612F0D2F4D2D8D2D0E944E08DF9135
S11313F0CF911F910F91FF90EF90DF9008951F936D
S1131400CF93DF93182FD0E00BC0412F6D2F8C2F7B
S11314100E943007CF5F01C0C0E0CC23B4F7D85F8F
S1131420D034D0F3DF91CF911F91089580E00E94D2
S1131430FF09089580917101873A21F486EA809327
S1131440710103C087EA80937101809171010E9448
S11314506D0708956623E4F04034D0F42230C0F4DC
S1131460EFE6F1E0948383836583468350E0415043
S11314705109CA0199230CF407969595879595957A
S1131480879595958795EFE6F1E08F5F87832087B1
S113149008954F925F926F927F928F929F92AF9234
S11314A0BF92CF92DF92EF92FF920F931F93CF934D
S11314B0DF93AFE6B1E05C9011964C9011978052A7
S11314C015969C91159717962C911797929F9001BA
S11314D011242F5F3F4F829FA001839F500D112441
S11314E01396ED91FC9114975A018FEFA81AB80A3C
S11314F0E40FF51F7490842D8770982E642C812C32
S11315005FC0662D852D0E94AC077501E80CF11CA7
S1131510670181E0C81AD10810E041C080917201CE
S113152090917301FC01EE0DFF1D2491492D50E0B3
S113153030E0092C02C0220F331F0A94E2F7022F75
S11315408820A1F0FC01EC0DFD1DE49188E090E001
S1131550841B950BF0E002C0F595E7958A95E2F7B8
S11315600E2F022B80917601C80ED11C8091770139
S1131570813039F4EFE6F1E0618180810E943E0719
S1131580082BCFE6D1E06981888191E0980F988398
S1131590402F0E9430078F81E80EF11C1F5F171542
S11315A008F4BCCF80917701811107C0EFE6F1E028
S11315B040E0618180810E94300788E0680E839456
S11315C080917601881608F49CCF242D26952695C3
S11315D0269530E08091750190E0840D911D01976E
S11315E0AC0112F4495F5F4F559547955595479562
S11315F0559547952417350709F445C08FE386159B
S113160008F441C0662D852D0E94AC07A80CB11CBE
S113161081E0A81AB10800E029C0CFE6D1E0F98042
S113162018816F2D812F0E943E07EB81FC81EA0D0A
S1131630FB1D449128E030E02919310950E002C033
S1131640559547952A95E2F7482B9885913009F4EA
S1131650482BCFE6D1E081E0810F88836F2D812F65
S11316600E9430078F81A80EB11C0F5F0715A8F2E6
S113167080917701811107C0EFE6F1E040E06181DC
S113168080810E943007852D870D642D8F5F0E9415
S1131690AC07DF91CF911F910F91FF90EF90DF90F6
S11316A0CF90BF90AF909F908F907F906F905F90FE
S11316B04F900895CF93DF93EC010DC0EFE6F1E076
S11316C09081258130E0290F311D2038310534F413
S11316D021960E94490A88818111F0CFDF91CF9130
S11316E0089587B1806187B987B1806287B988B16D
S11316F0806188B988B1806288B91092B90088E4A1
S11317008093B80084E08093BC0008958091B90070
S1131710887F089584EA8093BC008091BC0088236C
S1131720E4F70E94860B089585ED8093BC008091B8
S1131730BC0084FDFCCF08958093BB0084E88093B3
S1131740BC008091BC008823E4F70E94860B0895B6
S11317505058BB27AA270E94C00B0C94350D0E9439
S1131760270D38F00E942E0D20F039F49F3F19F414
S113177026F40C94240D0EF4E095E7FB0C941E0D56
S1131780E92F0E94460D58F3BA17620773078407BE
S1131790950720F079F4A6F50C94680D0EF4E09505
S11317A00B2EBA2FA02D0B01B90190010C01CA0117
S11317B0A0011124FF27591B99F0593F50F4503EC2
S11317C068F11A16F040A22F232F342F4427585FB4
S11317D0F3CF469537952795A795F0405395C9F7CC
S11317E07EF41F16BA0B620B730B840BBAF0915084
S11317F0A1F0FF0FBB1F661F771F881FC2F70EC023
S1131800BA0F621F731F841F48F4879577956795F5
S1131810B795F7959E3F08F0B0CF9395880F08F0E1
S11318209927EE0F9795879508950E94290C0C949B
S1131830350D0E942E0D58F00E94270D40F029F41A
S11318405F3F29F00C941E0D51110C94690D0C94FA
S1131850240D0E94460D68F39923B1F3552391F3A7
S1131860951B550BBB27AA2762177307840738F00B
S11318709F5F5F4F220F331F441FAA1FA9F335D068
S11318800E2E3AF0E0E832D091505040E695001C1C
S1131890CAF72BD0FE2F29D0660F771F881FBB1FD6
S11318A0261737074807AB07B0E809F0BB0B802DB4
S11318B0BF01FF2793585F4F3AF09E3F510578F0E0
S11318C00C941E0D0C94690D5F3FE4F3983ED4F321
S11318D0869577956795B795F7959F5FC9F7880FB4
S11318E0911D9695879597F90895E1E0660F771F06
S11318F0881FBB1F621773078407BA0720F0621B97
S1131900730B840BBA0BEE1F88F7E09508950E94C1
S11319108E0C6894B1110C94690D08950E944E0DBB
S113192088F09F5798F0B92F9927B751B0F0E1F09C
S1131930660F771F881F991F1AF0BA95C9F714C04C
S1131940B13091F00E94680DB1E008950C94680DD7
S1131950672F782F8827B85F39F0B93FCCF3869585
S113196077956795B395D9F73EF4909580957095E2
S113197061957F4F8F4F9F4F0895E89409C097FB5F
S11319803EF490958095709561957F4F8F4F9F4F52
S11319909923A9F0F92F96E9BB279395F695879596
S11319A077956795B795F111F8CFFAF4BB0F11F459
S11319B060FF1BC06F5F7F4F8F4F9F4F16C0882300
S11319C011F096E911C0772321F09EE8872F762F36
S11319D005C0662371F096E8862F70E060E02AF077
S11319E09A95660F771F881FDAF7880F9695879563
S11319F097F90895990F0008550FAA0BE0E8FEEF38
S1131A0016161706E807F907C0F012161306E407BE
S1131A10F50798F0621B730B840B950B39F40A26B7
S1131A2061F0232B242B252B21F408950A2609F495
S1131A30A140A6958FEF811D811D089597F99F6799
S1131A4080E870E060E008959FEF80EC0895002442
S1131A500A941616170618060906089500240A940F
S1131A6012161306140605060895092E0394000C95
S1131A7011F4882352F0BB0F40F4BF2B11F460FF24
S1131A8004C06F5F7F4F8F4F9F4F089557FD90584D
S1131A90440F551F59F05F3F71F04795880F97FB2E
S1131AA0991F61F09F3F79F08795089512161306E8
S1131AB01406551FF2CF4695F1DF08C01616170617
S1131AC01806991FF1CF869571056105089408954C
S1131AD0E894BB2766277727CB0197F908950E94DE
S1131AE0FA0C08F48FEF08950E94870D0C94350DBD
S1131AF00E94270D38F00E942E0D20F0952311F03E
S1131B000C941E0D0C94240D11240C94690D0E9448
S1131B10460D70F3959FC1F3950F50E0551F629FDA
S1131B20F001729FBB27F00DB11D639FAA27F00D32
S1131B30B11DAA1F649F6627B00DA11D661F829F59
S1131B402227B00DA11D621F739FB00DA11D621F3E
S1131B50839FA00D611D221F749F3327A00D611D5B
S1131B60231F849F600D211D822F762F6A2F11243D
S1131B709F5750409AF0F1F088234AF0EE0FFF1F70
S1131B80BB1F661F771F881F91505040A9F79E3FC7
S1131B90510580F00C941E0D0C94690D5F3FE4F325
S1131BA0983ED4F3869577956795B795F795E7951D
S1131BB09F5FC1F7FE2B880F911D9695879597F926
S1131BC0089597FB072E16F4009407D077FD09D0EB
S1131BD00E94450E07FC05D03EF4909581959F4FD9
S1131BE00895709561957F4F0895A1E21A2EAA1B5E
S1131BF0BB1BFD010DC0AA1FBB1FEE1FFF1FA217B9
S1131C00B307E407F50720F0A21BB30BE40BF50BB5
S1131C10661F771F881F991F1A9469F7609570953E
S1131C20809590959B01AC01BD01CF010895052ECF
S1131C3097FB1EF400940E942E0E57FD07D00E94BD
S1131C40F50D07FC03D04EF40C942E0E50954095E0
S1131C50309521953F4F4F4F5F4F08959095809554
S1131C60709561957F4F8F4F9F4F0895A29FB0014C
S1131C70B39FC001A39F700D811D1124911DB29FBC
S1131C80700D811D1124911D0895AA1BBB1B51E1E8
S1131C9007C0AA1FBB1FA617B70710F0A61BB70BD8
S1131CA0881F991F5A95A9F780959095BC01CD017D
S1131CB00895AEE0B0E0EFE5FEE00C9464110D8908
S1131CC01E8986E08C831A8309838FEF9FE79E83A6
S1131CD08D83AE01475E5F4F6F89788DCE0101968B
S1131CE00E947B0EEF81F885E00FF11F10822E9683
S1131CF0E4E00C948011ABE0B0E0E1E8FEE00C9489
S1131D0056116C017B018A01FC01178216828381C2
S1131D1081FFCCC1CE0101963C01F6019381F7010C
S1131D2093FD859193FF81917F01882309F4BAC1C2
S1131D30853239F493FD859193FF81917F0185323A
S1131D4029F4B60190E00E947210E7CF912C212C67
S1131D50312CFFE1F315D8F08B3279F038F480326E
S1131D6079F08332A1F4232D20611DC08D3261F0FE
S1131D70803369F4232D216016C0832D8260382EB0
S1131D80E32DE4603E2E2AC0F32DF8601DC037FC1D
S1131D902DC020ED280F2A3040F08E32B9F436FCE5
S1131DA081C1232D2064322E19C036FE06C08AE07C
S1131DB0989E200D1124922E11C0EAE02E9E200D33
S1131DC01124222EF32DF0623F2E08C08C3621F40C
S1131DD0832D8068382E02C0883641F4F70193FDC4
S1131DE0859193FF81917F018111B3CF982F9F7DBE
S1131DF09554933028F40C5F1F4F9FE399830DC0D3
S1131E00833631F0833771F0833509F059C021C02E
S1131E10F801808189830E5F1F4F88248394912C5D
S1131E20530113C02801F2E04F0E511CF801A080A9
S1131E30B18036FE03C0692D70E002C06FEF7FEF02
S1131E40C5010E9467104C018201F32DFF773F2EDC
S1131E5016C0280122E0420E511CF801A080B18076
S1131E6036FE03C0692D70E002C06FEF7FEFC5013D
S1131E700E945C104C01F32DF0683F2E820133FC6C
S1131E801BC0822D90E088169906B0F4B60180E25A
S1131E9090E00E9472102A94F4CFF50137FC8591EA
S1131EA037FE81915F01B60190E00E94721021100B
S1131EB02A9421E0821A91088114910471F7E8C0F0
S1131EC0843611F0893641F5F80137FE07C0608188
S1131ED07181828193810C5F1F4F08C06081718181
S1131EE0072E000C880B990B0E5F1F4FF32DFF7606
S1131EF03F2E97FF09C090958095709561957F4F0F
S1131F008F4F9F4FF0683F2E2AE030E0A3010E94DC
S1131F10AE10882E861845C0853731F4232D2F7EC8
S1131F20B22E2AE030E025C0932D997FB92E8F364A
S1131F30C1F018F4883579F0B5C0803719F08837C6
S1131F4021F0B0C0E92FE061BE2EB4FE0DC0FB2D20
S1131F50F460BF2E09C034FE0AC0292F2660B22EB9
S1131F6006C028E030E005C020E130E002C020E1F6
S1131F7032E0F801B7FE07C06081718182819381EC
S1131F800C5F1F4F06C06081718180E090E00E5F9E
S1131F901F4FA3010E94AE10882E8618FB2DFF77D9
S1131FA03F2E36FE0DC0232D2E7FA22E891458F409
S1131FB034FE0BC032FC09C0832D8E7EA82E05C0D2
S1131FC0B82CA32C03C0B82C01C0B92CA4FE0FC09C
S1131FD0FE01E80DF11D8081803321F49A2D997E54
S1131FE0A92E09C0A2FE06C0B394B39404C08A2DDE
S1131FF0867809F0B394A3FC11C0A0FE06C0B21405
S113200088F4280C922C9B180EC0B21460F4B6010C
S113201080E290E00E947210B394F7CFB21418F4E7
S11320202B1802C0982C212CA4FE10C0B60180E30A
S113203090E00E947210A2FE17C0A1FC03C088E7C2
S113204090E002C088E590E0B6010CC08A2D867845
S113205059F0A1FE02C08BE201C080E2A7FC8DE230
S1132060B60190E00E947210891438F4B60180E33E
S113207090E00E9472109A94F7CF8A94F301E80DCD
S1132080F11D8081B60190E00E9472108110F5CF9D
S1132090222009F442CEB60180E290E00E94721040
S11320A02A94F6CFF6018681978102C08FEF9FEFC5
S11320B02B96E2E10C947211FC0105906150704082
S11320C00110D8F7809590958E0F9F1F0895FC01FD
S11320D06150704001900110D8F7809590958E0F53
S11320E09F1F08950F931F93CF93DF93FB012381C9
S11320F021FD03C08FEF9FEF2CC022FF16C0468145
S11321005781248135814217530744F4A081B1815A
S11321109D012F5F3F4F318320838C93268137812C
S11321202F5F3F4F3783268314C08B01EC01FB01E3
S11321300084F185E02D0995892BE1F6D8011696E6
S11321408D919C911797019617969C938E93169751
S1132150CE01DF91CF911F910F910895FA01AA2723
S1132160283051F1203181F1E8946F936E7F6E5FD6
S11321707F4F8F4F9F4FAF4FB1E03ED0B4E03CD084
S1132180670F781F891F9A1FA11D680F791F8A1F67
S1132190911DA11D6A0F711D811D911DA11D20D0CE
S11321A009F468943F912AE0269F11243019305D88
S11321B03193DEF6CF010895462F4770405D419379
S11321C0B3E00FD0C9F7F6CF462F4F70405D4A33C6
S11321D018F0495D31FD4052419302D0A9F7EACF8E
S11321E0B4E0A6959795879577956795BA95C9F7BD
S11321F000976105710508959B01AC010A2E0694B0
S11322005795479537952795BA95C9F7620F731F68
S1132210841F951FA01D0895F999FECF92BD81BD1D
S1132220F89A992780B50895A6E1B0E044E050E01B
S11322300C944811262FF999FECF92BD81BDF89ACE
S1132240019700B4021639F01FBA20BD0FB6F894F6
S1132250FA9AF99A0FBE08950396272F0E941B112C
S11322600E941A11252F0E941B11242F0C941B115C
S1132270262FF999FECF1FBA92BD81BD20BD0FB69E
S1132280F894FA9AF99A0FBE01960895DC01CB01ED
S1132290FC01F999FECF06C0F2BDE1BDF89A319672
S11322A000B40D9241505040B8F708952F923F92D8
S11322B04F925F926F927F928F929F92AF92BF9252
S11322C0CF92DF92EF92FF920F931F93CF93DF93FE
S11322D0CDB7DEB7CA1BDB0B0FB6F894DEBF0FBE5B
S11322E0CDBF09942A88398848885F846E847D84A8
S11322F08C849B84AA84B984C884DF80EE80FD80AA
S11323000C811B81AA81B981CE0FD11D0FB6F8941F
S1112310DEBF0FBECDBFED010895F894FFCFE0
S113231E1E4132002300502575004C415344204386
S113232E617200204300202500442E20506E6575F6
S113233E3A200020636D00536F6E61723A200020C4
S10B234E72706D00206B6D003C
S9030000FC
