S02200005461636F6D6574726F436F6D5669736F724E6F6B6961353131302E7372656369
S11300000C9454010C944B020C9471010C947101E6
S11300100C9471010C94D5020C9471010C94260279
S11300200C9471010C9471010C94CD010C94710128
S11300300C9471010C9471010C9471010C94710174
S11300400C9471010C9471010C947E010C94710157
S11300500C94BE010C94BF020C9471010C947101B8
S11300600C9471010C94710105000000000005005E
S1130070005F000005000700070005147F147F14CB
S113008005242A7F2A12052313086462053649567B
S1130090205005080703000005001C22410005004C
S11300A041221C000514083E08140508083E0808EF
S11300B00500B07000000508080808080500606025
S11300C00000052010080402053E5149453E050084
S11300D0427F4000057249494946052141494D3353
S11300E0051814127F10052745454539053C4A4932
S11300F04931054121110907053649494936054663
S11301004949291E05000014000005004034000080
S11301100508142241000514141414140541221472
S11301200800050201590906053E415D594E057C4A
S11301301211127C057F49494936053E414141224D
S1130140057F4141413E057F49494949057F0909E8
S11301500909053E41415173057F0808087F0500E0
S1130160417F4100052040413F01057F08142241A1
S1130170057F40404040057F020C027F057F040854
S1130180107F053E4141413E057F09090906053EB0
S11301904151215E057F09192946052649494932FD
S11301A00501017F0101053F4040403F051F2040FC
S11301B0201F053F4038403F0563140814630503BE
S11301C00478040305615149454305007F4141001A
S11301D0050204081020050041417F0005040201C6
S11301E0020405404040404005070B000000052084
S11301F054547840057F28444438053844444428FE
S113020005384444287F0538545454180500087EA2
S113021009020518A4A49C78057F08040478050045
S1130220447D4000052040403D00057F10284400E7
S11302300500417F4000057C04780478057C0804AF
S1130240047805384444443805FC18242418051857
S1130250242418FC057C0804040805485454542438
S11302600504043F4424053C4040207C051C2040F8
S1130270201C053C4030403C054428102844054CD3
S11302809090907C054464544C4405000836410029
S1130290050000770000050041360800050402044B
S11302A0080405007F417F0011241FBECFEFD8E072
S11302B0DEBFCDBF11E0A0E0B1E0E8ECF3E202C0A4
S11302C005900D92AE33B107D9F725E0AEE3B1E066
S11302D001C01D92AF37B207E1F70E9402070C94E8
S11302E0E2110C9400009093C5008093C40088ED43
S11302F08093C1008EE08093C20008951F920F92F4
S11303000FB60F9211242F933F934F935F936F93E4
S11303107F938F939F93AF93BF93EF93FF938091BA
S1130320C600809302018C3629F460E085E090E0F9
S11303300E948D1180910201863731F48FEF8093F2
S1130340550188B1886088B980910201863629F404
S11303501092550188B1877F88B9FF91EF91BF91C1
S1130360AF919F918F917F916F915F914F913F9149
S11303702F910F900FBE0F901F9018951F920F9200
S11303800FB60F9211248F9381E0809356018F91C1
S11303900F900FBE0F901F9018951F920F920FB6DB
S11303A00F9211244F935F936F937F938F939F9337
S11303B0AF93BF93EF93FF938091810086FF0FC0AB
S11303C08091860090918700A0E0B0E080935D0169
S11303D090935E01A0935F01B093600122C080916D
S11303E0860090918700A0E0B0E040915D015091BB
S11303F05E0160915F0170916001841B950BA60BF7
S1130400B70B880F991FAA1FBB1F880F991FAA1F1C
S1130410BB1F8093590190935A01A0935B01B09341
S11304205C01E1E8F0E0908180E489278083FF911A
S1130430EF91BF91AF919F918F917F916F915F9158
S11304404F910F900FBE0F901F9018951F920F920F
S11304500FB60F9211248F939F93AF93BF93809104
S1130460720190917301A0917401B091750101968C
S1130470A11DB11D8093720190937301A093740127
S1130480B0937501BF91AF919F918F910F900FBE63
S11304900F901F9018951F920F920FB60F92112470
S11304A08F929F92AF92BF92CF92DF92EF92FF9280
S11304B02F933F934F935F936F937F938F939F9368
S11304C0AF93BF93EF93FF93C0907201D0907301E9
S11304D0E0907401F0907501809150019091510168
S11304E09601281B390B30936401209363016091BA
S11304F0650170E080E090E00E94140D2BED3FE078
S113050049E450E40E94C90D4B015C0160916A0109
S113051070916B0180916C0190916D010E94120D9C
S1130520A50194010E94FE0B0E94E30C60936A01F2
S113053070936B0180936C0190936D01C092500194
S1130540D0925101E0925201F0925301FF91EF9148
S1130550BF91AF919F918F917F916F915F914F91D7
S11305603F912F91FF90EF90DF90CF90BF90AF908D
S11305709F908F900F900FBE0F901F9018951F9211
S11305800F920FB60F9211248F939F93809178004E
S11305909091790090936201809361019F918F9172
S11305A00F900FBE0F901F9018951F920F920FB6C9
S11305B00F9211242F933F934F935F936F937F93E5
S11305C08F939F93AF93BF93EF93FF934C990BC07B
S11305D060916501683C38F46F5F6093650180E069
S11305E090E00E946F114D990BC0609165016230DB
S11305F038F061506093650180E090E00E946F11D3
S11306004B9904C084E48093070103C082E580937E
S113061007014F9903C080E580930701FF91EF9193
S1130620BF91AF919F918F917F916F915F914F9106
S11306303F912F910F900FBE0F901F901895AC0112
S113064080914F01813059F120F0823009F456C075
S113065085C085B1817C85B985B1806C85B99A01E5
S1130660ADECBCEC0E948B0E96958795969587957C
S1130670969587959C01220F331F880F991F880F29
S1130680991F880F991F820F931F9A01281B390BFA
S1130690C901880F8E7195B1892B85B95FC085B169
S11306A0817A85B985B1806A85B9E5B19A01ADECE5
S11306B0BCEC0E948B0EAC01569547955695479518
S11306C0569547959A010E948B0E96958795969517
S11306D08795969587959C01220F331F880F991F44
S11306E0880F991F880F991F820F931F9A01281B47
S11306F0390BC901880F8E2B85B930C085B181763D
S113070085B985B1806685B9E5B19A013695279595
S113071036952795ABE7B4E10E948B0EAC01569554
S113072047959A01ADECBCEC0E948B0E969587958B
S113073096958795969587959C01220F331F880F70
S1130740991F880F991F880F991F820F931F9A0171
S1130750281B390BC901880F8E2B85B980914F0155
S1130760823019F410924F0108958F5F80934F01E6
S113077008958F929F92AF92BF92CF92DF92EF92A1
S1130780FF926091650170E080E090E00E94140D9A
S11307902BED3FE049E450E40E94C90D20E030E035
S11307A044EB53E40E94C90D4B015C01C09063010A
S11307B0D0906401E12CF12CC701B6010E94120D06
S11307C09B01AC01C501B4010E946A0C60936E01E7
S11307D070936F01809370019093710160EC77E2E4
S11307E089E090E0A70196010E946C0ECA01B9014C
S11307F00E94140D609366017093670180936801F1
S1130800909369018091590190915A016AE370E0D3
S11308100E94360E709358016093570160916A01EB
S113082070916B0180916C0190916D010E94120D89
S11308306B017C0120914B0130914C0140914D01A1
S113084050914E010E94FD0B20E030E543EC57E44B
S11308500E94C40D8823D4F0F999FECFB701A601F4
S113086081E090E00E94811160916A0170916B01B6
S113087080916C0190916D010E94120D60934B0167
S113088070934C0180934D0190934E01FF90EF9033
S1130890DF90CF90BF90AF909F908F9008958091FC
S11308A002018436B9F4909101018DEC989F912D49
S11308B01124969596959695989F812D1124869549
S11308C086958695880F282F220F220F820F981B5A
S11308D09093C60080915601882399F020910101DC
S11308E08DEC289F812D1124869586958695880FF9
S11308F0982F990F990F890F281B2093C6001092E7
S113090056010895CF92DF92EF92FF92C090470173
S1130910D0904801E0904901F0904A019B01AC015C
S11309202C193D094E095F0969017A013CE3C3169C
S1130930D104E104F104B8F06B017C0160916E0113
S113094070916F0180917001909171010E94DC0C93
S1130950CB010E941F03C0924701D0924801E0924C
S11309604901F0924A01FF90EF90DF90CF900895F3
S11309700F931F93CF93DF93CDB7DEB7A2970FB634
S1130980F894DEBF0FBECDBF188E60916A017091DE
S11309906B0180916C0190916D0120EA36E841E091
S11309A050E00E944A0E3F932F9308E011E01F93FA
S11309B00F93CE0101969F938F930E94AE0E609188
S11309C066017091670180916801909169010E94AC
S11309D0DC0C7F936F931F930F93CE0105969F9327
S11309E08F930E94AE0E809165011F928F931F9387
S11309F00F93CE010B969F938F930E94AE0E80911E
S1130A0062018F93809161018F931F930F93CE01A5
S1130A100F969F938F930E94AE0E809158018F93EF
S1130A20809157018F931F930F93CE0143969F9309
S1130A308F930E94AE0E809104018F9380910301E5
S1130A408F931F930F93CE0147969F938F930E948A
S1130A50AE0E0FB6F894DEBF0FBECDBF8091540129
S1130A601F928F931F930F93CE014F969F938F9353
S1130A700E94AE0E809106018F93809105018F93A1
S1130A801F930F93CE014B969F938F930E94AE0EAC
S1130A900E946B0A61E081E00E9401088BE091E012
S1130AA00E94AF0B0FEF2AE042E36AE081E00E946C
S1130AB06A09809155010FB6F894DEBF0FBECDBF11
S1130AC08F3F69F465E080E50E94010886E50E9495
S1130AD09E0A2FE04AE561E089E40E94FD096FE087
S1130AE084E60E940108CE014B960E94AF0B84E17C
S1130AF091E00E94AF0B63E084E60E940108CE01FE
S1130B0047960E94AF0B87E191E00E94AF0B0FEF75
S1130B1029E14EE761E082E60E94FD0964E281E09A
S1130B200E9401088AE191E00E94AF0BCE010B966E
S1130B300E94AF0B84E291E00E94AF0B6AE181E076
S1130B400E94010888E291E00E94AF0BCE01439617
S1130B500E94AF0B84E291E00E94AF0B60E181E060
S1130B600E940108CE0105960E94AF0B80E391E03C
S1130B700E94AF0B64E382E00E940108CE0101965B
S1130B800E94AF0B85E391E00E94AF0B2EE343E29A
S1130B9060E380E00E94FD0964E387E20E940108AB
S1130BA0CE014F960E94AF0B89E391E00E94AF0BF8
S1130BB02EE340E560E385E20E94FD0964E383E7F8
S1130BC00E940108809107010E949E0A2EE34DE7CE
S1130BD060E38CE60E94FD090E94D307A2960FB63B
S1130BE0F894DEBF0FBECDBFDF91CF911F910F915F
S1130BF00895CF92DF92EF92FF926B017C01809176
S1130C003F0190914001A0914101B0914201A7019F
S1130C109601281B390B4A0B5B0BDA01C901883892
S1130C209341A105B10510F00E94B804C0923F01A0
S1130C30D0924001E0924101F0924201FF90EF9086
S1130C40DF90CF9008950F931F93CF93DF938091FC
S1130C503E01813009F45BC020F0823009F46DC09C
S1130C6092C00091780010917900C0915701D09101
S1130C705801CD3281E0D807A0F460916E017091E3
S1130C806F01809170019091710120E030E040EAA1
S1130C9051E40E94C40D1816B4F517BC1092540107
S1130CA032C060916E0170916F01809170019091DA
S1130CB0710120E030E048E452E40E94C40D1816AB
S1130CC07CF489E187BD9091000181E09F3F08F4A5
S1130CD080E099E1899F802D11248093540113C0F1
S1130CE0CD32D14080F016950795169507958091E1
S1130CF00001089FC00111246FEF70E00E94360EBE
S1130D006093540107BD81E480937C003CC0209132
S1130D10780030917900A4E6B0E00E948B0E2FEFAA
S1130D2033E040E050E00E944A0E309304012093E7
S1130D30030182E480937C0026C0209178003091E6
S1130D407900AAE7B0E00E948B0E6658734F8109C0
S1130D50910924E630E040E050E00E944A0E3093CE
S1130D600601209305018091010190E08217930709
S1130D7038F420930101622F85E090E00E946F1106
S1130D8080E480937C0080913E01823019F41092BB
S1130D903E0103C08F5F80933E01DF91CF911F918D
S1130DA00F910895CF92DF92EF92FF92C09043018A
S1130DB0D0904401E0904501F09046019B01AC01C4
S1130DC02C193D094E095F0969017A0138EEC316F1
S1130DD033E0D306E104F10480F06B017C010E944E
S1130DE0B9030E9423060E944F04C0924301D0928B
S1130DF04401E0924501F0924601FF90EF90DF90AC
S1130E00CF9008958EEF84B982E48AB980E38BB9D8
S1130E1015B887B1886087B983E48093810090E234
S1130E2090936F0082E08093B0008093B10027EC30
S1130E302093B300809370008093690081E08DBBA0
S1130E4084E08093680088EB80936D0080E4809355
S1130E507C0087EE80937A0010927B0090937E0052
S1130E6083E884BD83E085BD80E887BD7894F999E3
S1130E70FECF80E090E00E94611180936501F999B2
S1130E80FECF81E090E00E9469110E94E30C609320
S1130E906A0170936B0180936C0190936D01F999D1
S1130EA0FECF85E090E00E946111809302010E94D0
S1130EB00A0820E048E065E088E690E00E947F0AA6
S1130EC00E946F0A87E690E00E94730160917201AC
S1130ED07091730180917401909175010E94820454
S1130EE06091720170917301809174019091750108
S1130EF00E94D20660917201709173018091740115
S1130F00909175010E94F905E1CF66956695669505
S1130F10E82FF0E080E8689FE00DF11D1124E1580E
S1130F20FE4F40830895669566956695E82FF0E038
S1130F3080E8689FE00DF11D1124E158FE4F808187
S1130F4008950F931F93CF93DF93C82F8B01D42F52
S1130F500E94DF0B88E70E94F10B8C2F0E94F10B9B
S1130F60C0E007C0F801EC0FF11D80810E94F10B75
S1130F70CF5FCD17B8F30E94E90BDF91CF911F919A
S1130F800F910895CF93DF931F92CDB7DEB7898376
S1130F9041E0BE016F5F7F4F80E00E94A1070F9088
S1130FA0DF91CF910895CF9381E20E94C20780E040
S1130FB00E94C2078FE70E94C20782E20E94C20712
S1130FC080E00E94C20787E00E94C207C0E00BC015
S1130FD080E1C89FB001112461587E4F40E180E454
S1130FE00E94A107CF5FC03498F3CF91089588235E
S1130FF014F0809376010895803410F4809377017F
S11310000895CF93C62F0E94F7078C2F0E94FC07E8
S1131010CF9108950E94C60B8EEA0E94C20785ED07
S11310200E94C20780EF0E94C20788EA0E94C2079A
S11310308FE30E94C20783ED0E94C20780E00E94F2
S1131040C2078DE80E94C20784E10E94C20780E4BF
S11310500E94C20780E20E94C20780E00E94C20789
S113106081EA0E94C20788EC0E94C2078AED0E94AE
S1131070C20782E10E94C20781E80E94C2078FEF83
S11310800E94C20789ED0E94C20781EF0E94C20735
S11310908BED0E94C20780E20E94C20784EA0E948C
S11310A0C20786EA0E94C2078EE20E94C2078FEA44
S11310B00E94C20760E080E00E940108E6E7F1E0D8
S11310C086EA82831782168215821182108208951D
S11310D0FF920F931F93CF93DF93C62F142F0E9479
S11310E00108E6E7F1E0F180D0816F2D8D2F0E9499
S11310F093071F3F79F4C77001E010E020E030E06F
S113110004C0000F111F221F331FCA95D2F7482FA6
S1131110402B0FC0C77001E010E020E030E004C0B5
S1131120000F111F221F331FCA95D2F70095402FBD
S113113048236F2D8D2F0E948507DF91CF911F913A
S11311400F91FF9008956F927F928F929F92AF922A
S1131150BF92CF92DF92EF92FF920F931F93CF93A0
S1131160DF9388230CF4A7C044230CF4A4C0603498
S113117008F0A1C0203408F09EC0261B9924939443
S1131180920E481BD1E0D40F962F9770162F191B7F
S1131190E92CF12C28E030E0291B3109E216F30692
S11311A07CF428E030E02E193F094FEF50E06A014B
S11311B002C0D594C7942A95E2F72C2DB92C04C00B
S11311C028E0B22EB91A2FEFA82EC22ED12C02C0BD
S11311D0CC0CDD1C9A95E2F76C2C612F0E9401085F
S11311E0812C19C0E6E7F1E07180C081672D8C2F56
S11311F00E9493070F3F19F4462D482B03C04C2D32
S11312004095482381E08C0F80937601672D8C2FC5
S11312100E94850783948D1628F316C088E0B80EC3
S1131220185F612F8A2D0E940108C0E00BC0E6E719
S1131230F1E06181808191E0980F9083402F0E94BA
S11312408507CF5FCD1798F38B2D90E09C01285F25
S11312503F4FE216F30614F7B91468F5E81AF90AD1
S11312608FEF90E002C0880F991FEA94E2F7E82E0E
S1131270E09468E0610F8A2D0E94010810E019C013
S1131280E6E7F1E0F180C0816F2D8C2F0E94930777
S11312900F3F19F44E2D482B03C04E2D4095482383
S11312A081E08C0F809376016F2D8C2F0E9485072F
S11312B01F5F1D1728F3DF91CF911F910F91FF90AE
S11312C0EF90DF90CF90BF90AF909F908F907F90E2
S11312D06F9008958F929F92AF92BF92CF92DF92B8
S11312E0EF92FF920F931F93CF93DF93C82FD62FC4
S11312F0142F88230CF474C044230CF471C060349C
S113130008F06EC0203408F06BC084130AC026179E
S113131010F4D22F262F4C2F6D2F8C2F0E94A30850
S11313205FC062130EC0481748F4C42F182F06C0BC
S1131330402F6D2F8C2F0E946808CF5F1C17C0F7B9
S11313404FC0261728F4C62ED12CC21AD10804C0C7
S1131350C22ED12CC61AD1081C1728F4AC2EB12CDD
S1131360A11AB10804C0A12EB12CAC1AB108AC1456
S1131370BD0434F4812F122F282F8C2FCD2FD82F7A
S11313801C1730F48D2FD22F282F8C2FC12F182FFC
S1131390912E9C1AD21718F4E22EED1A02C0ED2EEB
S11313A0E21AF92CF694D21718F48824839416C000
S11313B088248A9413C0AC14BD0434F4402F6C2FD9
S11313C08D2F0E94680805C0402F6D2F8C2F0E941E
S11313D06808FE1812F4D80DF90CCF5F1C1758F7E3
S11313E0DF91CF911F910F91FF90EF90DF90CF90FD
S11313F0BF90AF909F908F900895DF92EF92FF92ED
S11314000F931F93CF93DF9388230CF445C0442399
S11314100CF442C0603408F03FC02034E8F5D02F0B
S1131420122FD42EF62EE82E481718F0042FC82FAA
S113143009C0082FC42F06C04D2F6F2D8C2F0E947A
S11314406808CF5F0C17C0F7DE1418F00D2DCE2DF1
S113145009C00E2DCD2D06C04D2F612F8C2F0E945B
S11314606808CF5F0C17C0F71F1518F0212F6F2DD8
S113147002C02F2D612F0D2F4E2D8E2D0E94A308FB
S11314801F1518F0212F6F2D02C02F2D612F0D2F46
S11314904D2D8D2D0E94A308DF91CF911F910F91A7
S11314A0FF90EF90DF9008951F93CF93DF93182F51
S11314B0D0E00BC0412F6D2F8C2F0E948507CF5F8A
S11314C001C0C0E0CC23B4F7D85FD034D0F3DF91AF
S11314D0CF911F91089580E00E94540A089580914D
S11314E07801873A21F486EA8093780103C087EA79
S11314F080937801809178010E94C2070895662341
S1131500E4F04034D0F42230C0F4E6E7F1E0948310
S113151083836583468350E041505109CA0199236E
S11315200CF4079695958795959587959595879548
S1131530E6E7F1E08F5F8783208708954F925F92FB
S11315406F927F928F929F92AF92BF92CF92DF92CF
S1131550EF92FF920F931F93CF93DF93A6E7B1E02F
S11315605C9011964C901197805215969C9115970A
S113157017962C911797929F900111242F5F3F4F3C
S1131580829FA001839F500D11241396ED91FC912D
S113159014975A018FEFA81AB80AE40FF51F749034
S11315A0842D8770982E642C812C5FC0662D852D28
S11315B00E9401087501E80CF11C670181E0C81A5A
S11315C0D10810E041C08091790190917A01FC0129
S11315D0EE0DFF1D2491492D50E030E0092C02C08E
S11315E0220F331F0A94E2F7022F8820A1F0FC0196
S11315F0EC0DFD1DE49188E090E0841B950BF0E078
S113160002C0F595E7958A95E2F70E2F022B80919B
S11316107D01C80ED11C80917E01813039F4E6E74A
S1131620F1E0618180810E949307082BC6E7D1E035
S11316306981888191E0980F9883402F0E948507E3
S11316408F81E80EF11C1F5F171508F4BCCF809141
S11316507E01811107C0E6E7F1E040E0618180810D
S11316600E94850788E0680E839480917D01881626
S113167008F49CCF242D26952695269530E080915C
S11316807C0190E0840D911D0197AC0112F4495F37
S11316905F4F55954795559547955595479524170B
S11316A0350709F445C08FE3861508F441C0662D5B
S11316B0852D0E940108A80CB11C81E0A81AB1086C
S11316C000E029C0C6E7D1E0F98018816F2D812F91
S11316D00E949307EB81FC81EA0DFB1D449128E0F5
S11316E030E02919310950E002C0559547952A95F3
S11316F0E2F7482B9885913009F4482BC6E7D1E0EE
S113170081E0810F88836F2D812F0E9485078F814F
S1131710A80EB11C0F5F0715A8F280917E018111FC
S113172007C0E6E7F1E040E0618180810E9485071F
S1131730852D870D642D8F5F0E940108DF91CF9165
S11317401F910F91FF90EF90DF90CF90BF90AF90DB
S11317509F908F907F906F905F904F900895CF935C
S1131760DF93EC010DC0E6E7F1E09081258130E0E4
S1131770290F311D2038310534F421960E949E0A28
S113178088818111F0CFDF91CF91089587B1806175
S113179087B987B1806287B988B1806188B988B117
S11317A0806288B91092B90088E48093B80084E01C
S11317B08093BC0008958091B900887F089584EADD
S11317C08093BC008091BC008823E4F70E94DB0B6B
S11317D0089585ED8093BC008091BC0084FDFCCF0E
S11317E008958093BB0084E88093BC008091BC0082
S11317F08823E4F70E94DB0B08955058BB27AA27DF
S11318000E94150C0C948A0D0E947C0D38F00E94E5
S1131810830D20F039F49F3F19F426F40C94790DCC
S11318200EF4E095E7FB0C94730DE92F0E949B0DD9
S113183058F3BA17620773078407950720F079F401
S1131840A6F50C94BD0D0EF4E0950B2EBA2FA02D29
S11318500B01B90190010C01CA01A0011124FF2759
S1131860591B99F0593F50F4503E68F11A16F04054
S1131870A22F232F342F4427585FF3CF4695379553
S11318802795A795F0405395C9F77EF41F16BA0B18
S1131890620B730B840BBAF09150A1F0FF0FBB1FC6
S11318A0661F771F881FC2F70EC0BA0F621F731F0F
S11318B0841F48F4879577956795B795F7959E3F6C
S11318C008F0B0CF9395880F08F09927EE0F9795FD
S11318D0879508950E947E0C0C948A0D0E94830DB6
S11318E058F00E947C0D40F029F45F3F29F00C94DD
S11318F0730D51110C94BE0D0C94790D0E949B0D27
S113190068F39923B1F3552391F3951B550BBB272A
S1131910AA2762177307840738F09F5F5F4F220F6F
S1131920331F441FAA1FA9F335D00E2E3AF0E0E866
S113193032D091505040E695001CCAF72BD0FE2FB0
S113194029D0660F771F881FBB1F26173707480744
S1131950AB07B0E809F0BB0B802DBF01FF279358FC
S11319605F4F3AF09E3F510578F00C94730D0C9440
S1131970BE0D5F3FE4F3983ED4F386957795679563
S1131980B795F7959F5FC9F7880F911D9695879531
S113199097F90895E1E0660F771F881FBB1F621750
S11319A073078407BA0720F0621B730B840BBA0B0E
S11319B0EE1F88F7E09508950E94E30C6894B11136
S11319C00C94BE0D08950E94A30D88F09F5798F0C3
S11319D0B92F9927B751B0F0E1F0660F771F881F30
S11319E0991F1AF0BA95C9F714C0B13091F00E944A
S11319F0BD0DB1E008950C94BD0D672F782F882795
S1131A00B85F39F0B93FCCF3869577956795B39570
S1131A10D9F73EF490958095709561957F4F8F4FDF
S1131A209F4F0895E89409C097FB3EF490958095E4
S1131A30709561957F4F8F4F9F4F9923A9F0F92F90
S1131A4096E9BB279395F695879577956795B7950E
S1131A50F111F8CFFAF4BB0F11F460FF1BC06F5FF4
S1131A607F4F8F4F9F4F16C0882311F096E911C006
S1131A70772321F09EE8872F762F05C0662371F027
S1131A8096E8862F70E060E02AF09A95660F771F3B
S1131A90881FDAF7880F9695879597F90895990F17
S1131AA00008550FAA0BE0E8FEEF16161706E80724
S1131AB0F907C0F012161306E407F50798F0621B45
S1131AC0730B840B950B39F40A2661F0232B242B1A
S1131AD0252B21F408950A2609F4A140A6958FEF39
S1131AE0811D811D089597F99F6780E870E060E08B
S1131AF008959FEF80EC089500240A9416161706A3
S1131B0018060906089500240A94121613061406EA
S1131B1005060895092E0394000C11F4882352F04D
S1131B20BB0F40F4BF2B11F460FF04C06F5F7F4F05
S1131B308F4F9F4F089557FD9058440F551F59F0EC
S1131B405F3F71F04795880F97FB991F61F09F3FA6
S1131B5079F087950895121613061406551FF2CFCF
S1131B604695F1DF08C0161617061806991FF1CF1F
S1131B7086957105610508940895E894BB27662746
S1131B807727CB0197F908950E944F0D08F48FEF42
S1131B9008950E94DC0D0C948A0D0E947C0D38F08F
S1131BA00E94830D20F0952311F00C94730D0C9476
S1131BB0790D11240C94BE0D0E949B0D70F3959F1A
S1131BC0C1F3950F50E0551F629FF001729FBB2730
S1131BD0F00DB11D639FAA27F00DB11DAA1F649FCC
S1131BE06627B00DA11D661F829F2227B00DA11D7F
S1131BF0621F739FB00DA11D621F839FA00D611D05
S1131C00221F749F3327A00D611D231F849F600D25
S1131C10211D822F762F6A2F11249F5750409AF04E
S1131C20F1F088234AF0EE0FFF1FBB1F661F771FDA
S1131C30881F91505040A9F79E3F510580F00C94A5
S1131C40730D0C94BE0D5F3FE4F3983ED4F3869578
S1131C5077956795B795F795E7959F5FC1F7FE2B45
S1131C60880F911D9695879597F9089597FB072EF0
S1131C7016F4009407D077FD09D00E949A0E07FC51
S1131C8005D03EF4909581959F4F08957095619588
S1131C907F4F0895A1E21A2EAA1BBB1BFD010DC0A4
S1131CA0AA1FBB1FEE1FFF1FA217B307E407F50708
S1131CB020F0A21BB30BE40BF50B661F771F881FE4
S1131CC0991F1A9469F760957095809590959B017A
S1131CD0AC01BD01CF010895052E97FB1EF40094BD
S1131CE00E94830E57FD07D00E944A0E07FC03D0C2
S1131CF04EF40C94830E50954095309521953F4FAA
S1131D004F4F5F4F089590958095709561957F4FE3
S1131D108F4F9F4F0895A29FB001B39FC001A39F0F
S1131D20700D811D1124911DB29F700D811D112410
S1131D30911D0895AA1BBB1B51E107C0AA1FBB1F1D
S1131D40A617B70710F0A61BB70B881F991F5A9543
S1131D50A9F780959095BC01CD010895AEE0B0E05F
S1131D60E4EBFEE00C94B9110D891E8986E08C83A6
S1131D701A8309838FEF9FE79E838D83AE01475EAD
S1131D805F4F6F89788DCE0101960E94D00EEF814E
S1131D90F885E00FF11F10822E96E4E00C94D51123
S1131DA0ABE0B0E0E6EDFEE00C94AB116C017B011E
S1131DB08A01FC0117821682838181FFCCC1CE0186
S1131DC001963C01F6019381F70193FD859193FF00
S1131DD081917F01882309F4BAC1853239F493FDD6
S1131DE0859193FF81917F01853229F4B60190E0BA
S1131DF00E94C710E7CF912C212C312CFFE1F31561
S1131E00D8F08B3279F038F4803279F08332A1F44F
S1131E10232D20611DC08D3261F0803369F4232DA0
S1131E20216016C0832D8260382EE32DE4603E2E9F
S1131E302AC0F32DF8601DC037FC2DC020ED280FFB
S1131E402A3040F08E32B9F436FC81C1232D20644F
S1131E50322E19C036FE06C08AE0989E200D112449
S1131E60922E11C0EAE02E9E200D1124222EF32D75
S1131E70F0623F2E08C08C3621F4832D8068382E02
S1131E8002C0883641F4F70193FD859193FF819157
S1131E907F018111B3CF982F9F7D9554933028F4FF
S1131EA00C5F1F4F9FE399830DC0833631F0833756
S1131EB071F0833509F059C021C0F801808189830C
S1131EC00E5F1F4F88248394912C530113C0280163
S1131ED0F2E04F0E511CF801A080B18036FE03C021
S1131EE0692D70E002C06FEF7FEFC5010E94BC1046
S1131EF04C018201F32DFF773F2E16C0280122E00A
S1131F00420E511CF801A080B18036FE03C0692D39
S1131F1070E002C06FEF7FEFC5010E94B1104C0169
S1131F20F32DF0683F2E820133FC1BC0822D90E01C
S1131F3088169906B0F4B60180E290E00E94C710BA
S1131F402A94F4CFF50137FC859137FE81915F0126
S1131F50B60190E00E94C71021102A9421E0821A51
S1131F6091088114910471F7E8C0843611F0893620
S1131F7041F5F80137FE07C0608171818281938148
S1131F800C5F1F4F08C060817181072E000C880B05
S1131F90990B0E5F1F4FF32DFF763F2E97FF09C05D
S1131FA090958095709561957F4F8F4F9F4FF06806
S1131FB03F2E2AE030E0A3010E940311882E8618E8
S1131FC045C0853731F4232D2F7EB22E2AE030E030
S1131FD025C0932D997FB92E8F36C1F018F488351A
S1131FE079F0B5C0803719F0883721F0B0C0E92FF7
S1131FF0E061BE2EB4FE0DC0FB2DF460BF2E09C0FF
S113200034FE0AC0292F2660B22E06C028E030E034
S113201005C020E130E002C020E132E0F801B7FE63
S113202007C060817181828193810C5F1F4F06C05C
S11320306081718180E090E00E5F1F4FA3010E94D8
S11320400311882E8618FB2DFF773F2E36FE0DC018
S1132050232D2E7FA22E891458F434FE0BC032FC9B
S113206009C0832D8E7EA82E05C0B82CA32C03C0D6
S1132070B82C01C0B92CA4FE0FC0FE01E80DF11D5F
S11320808081803321F49A2D997EA92E09C0A2FE65
S113209006C0B394B39404C08A2D867809F0B3942F
S11320A0A3FC11C0A0FE06C0B21488F4280C922C24
S11320B09B180EC0B21460F4B60180E290E00E9456
S11320C0C710B394F7CFB21418F42B1802C0982C8D
S11320D0212CA4FE10C0B60180E390E00E94C7103A
S11320E0A2FE17C0A1FC03C088E790E002C088E507
S11320F090E0B6010CC08A2D867859F0A1FE02C08A
S11321008BE201C080E2A7FC8DE2B60190E00E9460
S1132110C710891438F4B60180E390E00E94C71018
S11321209A94F7CF8A94F301E80DF11D8081B601EA
S113213090E00E94C7108110F5CF222009F442CE0E
S1132140B60180E290E00E94C7102A94F6CFF6010F
S11321508681978102C08FEF9FEF2B96E2E10C946A
S1132160C711FC010590615070400110D8F78095AB
S113217090958E0F9F1F0895FC016150704001904F
S11321800110D8F7809590958E0F9F1F08950F9397
S11321901F93CF93DF93FB01238121FD03C08FEFB6
S11321A09FEF2CC022FF16C04681578124813581C0
S11321B04217530744F4A081B1819D012F5F3F4F23
S11321C0318320838C93268137812F5F3F4F378360
S11321D0268314C08B01EC01FB010084F185E02D02
S11321E00995892BE1F6D80116968D919C91179744
S11321F0019617969C938E931697CE01DF91CF91FB
S11322001F910F910895FA01AA27283051F1203126
S113221081F1E8946F936E7F6E5F7F4F8F4F9F4F76
S1132220AF4FB1E03ED0B4E03CD0670F781F891FB8
S11322309A1FA11D680F791F8A1F911DA11D6A0F86
S1132240711D811D911DA11D20D009F468943F9139
S11322502AE0269F11243019305D3193DEF6CF0138
S11322600895462F4770405D4193B3E00FD0C9F7FE
S1132270F6CF462F4F70405D4A3318F0495D31FD6B
S11322804052419302D0A9F7EACFB4E0A6959795BE
S1132290879577956795BA95C9F700976105710594
S11322A008959B01AC010A2E0694579547953795DE
S11322B02795BA95C9F7620F731F841F951FA01D38
S11322C00895F999FECF92BD81BDF89A992780B5FA
S11322D00895A6E1B0E044E050E00C949D11262F4F
S11322E0F999FECF92BD81BDF89A019700B4021608
S11322F039F01FBA20BD0FB6F894FA9AF99A0FBEB6
S113230008950396272F0E9470110E946F11252FA4
S11323100E947011242F0C947011262FF999FECF6E
S11323201FBA92BD81BD20BD0FB6F894FA9AF99AEE
S11323300FBE01960895DC01CB01FC01F999FECF93
S113234006C0F2BDE1BDF89A319600B40D92415039
S11323505040B8F708952F923F924F925F926F9238
S11323607F928F929F92AF92BF92CF92DF92EF9221
S1132370FF920F931F93CF93DF93CDB7DEB7CA1BA2
S1132380DB0B0FB6F894DEBF0FBECDBF09942A88CD
S1132390398848885F846E847D848C849B84AA8475
S11323A0B984C884DF80EE80FD800C811B81AA8102
S11323B0B981CE0FD11D0FB6F894DEBF0FBECDBFCD
S10B23C0ED010895F894FFCF2C
S11323C8501E4132002300502575004C41534420CF
S11323D843617200204300202500442E20506E657E
S11323E8753A200020636D00536F6E61723A2000C5
S11123F82072706D00206B6D00204E2E6D0063
S9030000FC
